:100000000C943E000C9448000C9448000C9448005A
:100010000C9448000C9448000C9448000C94480040
:100020000C9448000C9448000C9448000C94480030
:100030000C9448000C9448000C9448000C94480020
:100040000C9448000C9448000C9448000C94480010
:100050000C9448000C9448000C9448000C94480000
:100060000C9448000C9448000201EE00DA00C6002F
:10007000B2009E008A0076006200160111241FBEA5
:10008000CFEFD8E0DEBFCDBF0E942B010C94D90486
:100090000C9400000BC0FFEF29EC38E0F150204039
:1000A0003040E1F700C00000615071096115710531
:1000B00009F4D0C08A30910570F7FC01EC5CFF4F69
:1000C0000C94D30424EB30E02D9AE7ECF7E0319761
:1000D000F1F700C000002D98E7ECF7E03197F1F759
:1000E00000C000002150310979F7DECF2AEA30E064
:1000F0002D9AEBE3F8E03197F1F700C000002D985E
:10010000EBE3F8E03197F1F700C00000215031092E
:1001100079F7CACF21EA30E02D9AEBEBF8E031977E
:10012000F1F700C000002D98EBEBF8E03197F1F704
:1001300000C000002150310979F7B6CF2FE830E038
:100140002D9AEBECF9E03197F1F700C000002D9803
:10015000EBECF9E03197F1F700C0000021503109D4
:1001600079F7A2CF2FE730E02D9AEFEFFAE0319741
:10017000F1F700C000002D98EFEFFAE03197F1F7AA
:1001800000C000002150310979F78ECF21E730E01F
:100190002D9AE7E5FCE03197F1F700C000002D98BB
:1001A000E7E5FCE03197F1F700C00000215031098C
:1001B00079F77ACF2BE630E02D9AE3E1FDE0319735
:1001C000F1F700C000002D98E3E1FDE03197F1F771
:1001D00000C000002150310979F766CF2FE530E0EB
:1001E0002D9AEFEAFEE03197F1F700C000002D985C
:1001F000EFEAFEE03197F1F700C00000215031092D
:1002000079F752CF25E530E02D9AEBE7F0E1319711
:10021000F1F700C000002D98EBE7F0E13197F1F71E
:1002200000C000002150310979F73ECF20E530E0D1
:100230002D9AE7E7F1E13197F1F700C000002D9822
:10024000E7E7F1E13197F1F700C0000021503109F3
:1002500079F72ACF0895CF93DF93CDB7DEB7C85B88
:10026000D1400FB6F894DEBF0FBECDBF259A8E01E8
:100270000F5F1F4F88EB91E0F8019C011192215014
:100280003040E1F725E030E03A83298384E090E0D4
:100290009C838B8343E050E05E834D83E3E1F0E099
:1002A000F887EF839A87898765E1E62EF12CFC8633
:1002B000EB8677E0A72EB12CBE86AD86388B2F87D4
:1002C0009A8B898B5C8B4B8B5E8B4D8B988F8F8B36
:1002D0005A8F498F3C8F2B8FBE8EAD8E38A32F8FB8
:1002E0009AA389A3FCA3EBA39EA38DA3A4E1B0E0F2
:1002F000B8A7AFA361E1C62ED12CDAA6C9A669E0E2
:1003000070E07CA76BA77EA76DA778AB6FA77AABD1
:1003100069AB7AE1672E712C7CAA6BAA3EAB2DAB40
:1003200098AF8FABFAAFE9AF9CAF8BAF3EAF2DAFBD
:1003300021963FAF2EAF21972396BFAEAEAE239747
:1003400025963FAF2EAF259727969FAF8EAF279765
:100350002996FFAFEEAF29972B969FAF8EAF2B97C5
:100360002D965FAF4EAF2D972F963FAF2EAF2F97A5
:1003700067E170E061967FAF6EAF619763963FAFC4
:100380002EAF639765969FAF8EAF659767965FAF09
:100390004EAF679769965FAF4EAF69976B965FAF49
:1003A0004EAF6B976D969FAF8EAF6D976F96BFAF49
:1003B000AEAF6F9761E070E0A1967FAF6EAFA1978F
:1003C000A3967FAF6EAFA397A5967FAF6EAFA597AD
:1003D000A7967FAF6EAFA797A9967FAF6EAFA9978D
:1003E000AB967FAE6EAEAB976894442443F8512C25
:1003F000AD965FAE4EAEAD97AF96BFAEAEAEAF9719
:10040000E196FFAEEEAEE197E3965FAF4EAFE397B6
:10041000E5969FAF8EAFE597E7965FAF4EAFE79754
:10042000E9969FAF8EAFE997EB965FAF4EAFEB9734
:10043000ED96FFAEEEAEED97EF965FAF4EAFEF9756
:10044000C158DF4F99838883CF57D040CF57DF4FB4
:1004500059834883C158D040CD57DF4F9983888353
:10046000C358D040CB57DF4F59834883C558D0403D
:10047000C957DF4FF982E882C758D040C757DF4FCE
:1004800059834883C958D040C557DF4F9983888323
:10049000CB58D040C357DF4F79826882CD58D040C7
:1004A000C157DF4F59834883CF58D040CF56DF4FD5
:1004B000D982C882C159D040CD56DF4F7983688335
:1004C000C359D040CB56DF4F79836883C559D0409C
:1004D000C956DF4F79836883C759D040C756DF4F6D
:1004E00079836883C959D0400F2EFAE08F2E912C62
:1004F000F02DC556DF4F99828882CB59D040C35624
:10050000DF4F79836883CD59D040C156DF4F39839F
:100510002883CF59D040CF55DF4F99838883C15A64
:10052000D040CD55DF4FF983E883C35AD040CB5537
:10053000DF4F99838883C55AD040C955DF4F59830F
:100540004883C75AD040C755DF4F39832883C95ADB
:10055000D040C555DF4FB982A882CB5AD040C35591
:10056000DF4F39832883CD5AD040C155DF4F99835F
:100570008883CF5AD0400F2EF4E2AF2EB12CF02D4D
:10058000CF54DF4FB982A882C15BD0400F2EF5E275
:10059000AF2EB12CF02DCD54DF4FB982A882C35BB2
:1005A000D0400F2EF8E2AF2EB12CF02DCB54DF4F00
:1005B000B982A882C55BD040C954DF4F7983688374
:1005C000C75BD040C754DF4F79836883C95BD04095
:1005D000C554DF4F79836883CB5BD040C354DF4F72
:1005E00079836883CD5BD040C154DF4F9982888284
:1005F000CF5BD040CF53DF4F39832883C15CD040DD
:10060000CD53DF4F99838883C35CD040CB53DF4FFA
:1006100059834883C55CD040C953DF4FB983A88351
:10062000C75CD040C753DF4F79836883C95CD04033
:10063000C553DF4F79836883CB5CD040C353DF4F12
:1006400039832883CD5CD040C153DF4FF983E883E1
:10065000CF5CD040CF52DF4F99838883C15DD040BB
:10066000CD52DF4FF982E882C35DD040CB52DF4FDD
:1006700099828882C55DD040C952DF4F3983288373
:10068000C75DD040C752DF4F99838883C95DD04092
:10069000C552DF4F59834883CB5DD040C352DF4FF3
:1006A000B983A883CD5DD040C152DF4F7983688381
:1006B000CF5DD040CF51DF4FD982C882C15ED040DC
:1006C000CD51DF4F59834883C35ED040CB51DF4FBC
:1006D00079836883C55ED040C751DF4FD982C88215
:1006E000C95ED040C551DF4F99828882CB5ED04031
:1006F000C351DF4F39832883CD5ED040C151DF4FD6
:10070000B983A883CF5ED040CF50DF4F99838883D1
:10071000C15FD040CD50DF4F79836883C35FD04045
:10072000CB50DF4FD982C882C55FD040C950DF4F60
:10073000F983E883C75FD040C750DF4F39832883F0
:10074000C95FD040C550DF4F99838883CB5FD040CD
:10075000C350DF4FF982E882CD5FD040C150DF4FF8
:1007600099828882CF5FD040CF5FDE4F3983288364
:10077000C150D140CD5FDE4F39832883C350D14073
:10078000CB5FDE4F39832883C550D140C95FDE4F30
:10079000F982E882C750D140C75FDE4FB983A88392
:1007A000C950D140C55FDE4F59834883CB50D140FB
:1007B000C35FDE4F99838883CD50D140C15FDE4F48
:1007C00039832883CF50D140CF5EDE4FB983A883D1
:1007D000C151D140CD5EDE4F59834883C351D140D2
:1007E000CB5EDE4FD982C882C551D14063E370E051
:1007F000C95EDE4F79836883C751D140A0E2EA2EFB
:10080000F12CC75EDE4FF982E882C951D140A2E3E4
:10081000B0E0C55EDE4FB983A883CB51D1400F2E27
:10082000F1E2CF2ED12CF02DC35EDE4FD982C882EB
:10083000CD51D1400F2EF2E1AF2EB12CF02DC15E83
:10084000DE4FB982A882CF51D140CF5DDE4F798390
:100850006883C152D140CD5DDE4F79836883C35236
:10086000D140CB5DDE4FF982E882C552D140C95DEF
:10087000DE4FB983A883C752D140C75DDE4FD9820E
:10088000C882C952D140C55DDE4F39832883CB521F
:10089000D140C35DDE4F99838883CD52D140C15D85
:1008A000DE4FF983E883CF52D140CF5CDE4FF9832E
:1008B000E883C153D140CD5CDE4F79826882C35357
:1008C000D140CB5CDE4F39832883C553D140C95C0E
:1008D000DE4F99838883C753D140C75CDE4FF983CD
:1008E000E883C953D140C55CDE4F99838883CB53DD
:1008F000D140C35CDE4F39832883CD53D140C15CE6
:10090000DE4F39832883CF53D140CF5BDE4F5982EE
:100910004882C154D140CD5BDE4F39832883C35414
:10092000D140CB5BDE4F99838883C554D140C95BEE
:10093000DE4FF983E883C754D140C75BDE4F99830C
:100940008883C954D140C55BDE4F59834883CB545B
:10095000D140CE0187549E4F5C01CC24C394D12C4E
:100960007801F701819191917F019C013295229547
:100970002F7023273F702327B60102C0660F771F11
:100980002A95E2F78F7099270E944A00AE14BF049F
:1009900041F7FFEF23ED30E3F15020403040E1F725
:1009A00000C00000DDCFEE0FFF1F0590F491E02D99
:0609B0000994F894FFCF4A
:00000001FF
