S00C00007A6164312E73726563A8
S11300000C943E000C9453000C9453000C94530035
S11300100C9453000C9453000C9453000C94530010
S11300200C9453000C9453000C9453000C94530000
S11300300C9453000C9453000C9453000C945300F0
S11300400C9453000C9453000C9453000C945300E0
S11300500C9453000C9453000C9453000C945300D0
S11300600C9453000C9453000D01F900E500D100E9
S1130070BD00A900950081006D00210111241FBE5F
S1130080CFEFD8E0DEBFCDBF12E0A0E0B1E0E0E00A
S1130090F3E002C005900D92A83BB107D9F70E9486
S11300A036010C947E010C9400000BC0FFEF29EC88
S11300B038E0F15020403040E1F700C000006150CA
S11300C071096115710509F4D0C08A30910570F782
S11300D0FC01EC5CFF4F0C94780124EB30E02D9A8A
S11300E0E7ECF7E03197F1F700C000002D98E7EC5A
S11300F0F7E03197F1F700C000002150310979F79A
S1130100DECF2AEA30E02D9AEBE3F8E03197F1F7FD
S113011000C000002D98EBE3F8E03197F1F700C040
S113012000002150310979F7CACF21EA30E02D9A35
S1130130EBEBF8E03197F1F700C000002D98EBEB02
S1130140F8E03197F1F700C000002150310979F748
S1130150B6CF2FE830E02D9AEBECF9E03197F1F7C8
S113016000C000002D98EBECF9E03197F1F700C0E6
S113017000002150310979F7A2CF2FE730E02D9A02
S1130180EFEFFAE03197F1F700C000002D98EFEFA0
S1130190FAE03197F1F700C000002150310979F7F6
S11301A08ECF21E730E02D9AE7E5FCE03197F1F7B7
S11301B000C000002D98E7E5FCE03197F1F700C09E
S11301C000002150310979F77ACF2BE630E02D9ADF
S11301D0E3E1FDE03197F1F700C000002D98E3E181
S11301E0FDE03197F1F700C000002150310979F7A3
S11301F066CF2FE530E02D9AEFEAFEE03197F1F774
S113020000C000002D98EFEAFEE03197F1F700C03E
S113021000002150310979F752CF25E530E02D9ABD
S1130220EBE7F0E13197F1F700C000002D98EBE720
S1130230F0E13197F1F700C000002150310979F75E
S11302403ECF20E530E02D9AE7E7F1E13197F1F771
S113025000C000002D98E7E7F1E13197F1F700C005
S113026000002150310979F72ACF0895CF93DF9305
S1130270CDB7DEB7C85BD1400FB6F894DEBF0FBE72
S1130280CDBF259A88EB91E0E0E0F1E0DE01119624
S113029001900D920197E1F7CE0187549E4F6C01B6
S11302A0EE24E394F12C8E010F5F1F4FF80181912E
S11302B091918F019C01329522952F7023273F70D5
S11302C02327B70102C0660F771F2A95E2F78F70C4
S11302D099270E945500C016D10641F7FFEF23ED80
S11302E080E3F15020408040E1F700C00000DBCF04
S11302F0EE0FFF1F0590F491E02D0994F894FFCFC1
S11303000500040003000A001300040015000700A0
S1130310050004000A0003000300040003000A00AF
S113032005000700050004000A001300040014007F
S113033011000A0009000900090009001A0005005B
S113034004000A001300040005000A000500070069
S1130350050004000A001300040003000A0005005D
S11303601700050004000A00030003000300040052
S11303700A00140001000A0001000100010001004C
S11303801A00080007000A00150003000A00040010
S11303900300040003000A00150003000A0004001F
S11303A00300040003000A001500030004001A00FF
S11303B0030011000A0001000100010001000A000D
S11303C00A000100050004000A00130004000300F1
S11303D00A0005000700050004000A0024002500A7
S11303E0280001000100010001000A000A000500C4
S11303F0040003000A001400010001000A000500C3
S1130400130004000A0015000A000A000500040095
S113041003000A00140001001100030001000000A1
S11304200A0011000A000A00050014000A00040072
S1130430010011000A00130005000A000400150061
S11304400A000A000500050005000A001500140052
S11304500A000300040005001400030011000A0050
S113046033000A0020000A0032000A0021000A00BA
S113047012000A0033000A0033000A0020000A00B8
S113048032000A0021000A00050004000A001300DB
S11304900A0013000A001A00050004000A001300F1
S11304A0040005000A0005000800050004000A0015
S10B04B01300040003000A001C
S9030000FC
