:100000000C9434000C9451000C9451000C94510049
:100010000C9451000C9451000C9451000C9451001C
:100020000C9451000C9451000C9451000C9451000C
:100030000C9451000C9451000C9451000C945100FC
:100040000C9451000C9451000C9451000C945100EC
:100050000C9451000C9451000C9451000C945100DC
:100060000C9451000C94510011241FBECFEFD8E026
:10007000DEBFCDBF11E0A0E0B1E0EEE0F2E002C0F3
:1000800005900D92A038B107D9F721E0A0E8B1E0C2
:1000900001C01D92A439B207E1F70E9489000C94B7
:1000A00005010C9400009091C00095FFFCCF809357
:1000B000C60080E090E008958091C00087FFFCCFEB
:1000C0008091C60090E00895529A87E690E0909360
:1000D000C5008093C40088E18093C10086E08093CE
:1000E000C200089580E480937C0081E080937E00CC
:1000F000EAE7F0E087E0808380818068808308956C
:1001000005C025E02A95F1F7000001970097C9F78F
:100110000895529A529A87E690E09093C500809392
:10012000C40088E18093C10086E08093C20080E82B
:1001300091E023E530E030938901209388012CE59C
:1001400030E030938B0120938A0123E020938301D8
:1001500010928D0110928C019093930180939201E3
:10016000909391018093900190938F0180938E01E1
:1001700080E480937C0081E080937E0087E0809320
:100180007A0080917A00806880937A0074E06BEF47
:100190004FE350E080917A00806480937A008091F0
:1001A0007A0084FFFCCF80917A00806180937A008E
:1001B0002091780030917900329522952F70232775
:1001C0003F7023277BB9F901EE0FFF1FE050FF4F6F
:1001D00080819181009731F0E5E0EA95F1F7000028
:1001E0000197D1F76BB9FA01E21BF30BEE0FFF1F7A
:1001F000E050FF4F80819181009761F225E02A95C0
:0E020000F1F700000197D1F7C5CFF894FFCFBA
:10020E0000000100010001000100010001000100D9
:10021E0002000200020002000200020002000200C0
:10022E000700070007000700070007000700070088
:10023E001400140014001400140014001400140010
:10024E0036003600360036003600360036003600F0
:10025E0094009400940094009400940094009400F0
:10026E0093019301930193019301930193019301E0
:10027E004804480448044804480448044804480410
:00000001FF
