S00C00007A6164332E73726563A6
S11300000C9434000C9451000C9451000C94510045
S11300100C9451000C9451000C9451000C94510018
S11300200C9451000C9451000C9451000C94510008
S11300300C9451000C9451000C9451000C945100F8
S11300400C9451000C9451000C9451000C945100E8
S11300500C9451000C9451000C9451000C945100D8
S11300600C9451000C94510011241FBECFEFD8E022
S1130070DEBFCDBF11E0A0E0B1E0ECE3F2E002C0EE
S113008005900D92A038B107D9F721E0A0E8B1E0BE
S113009001C01D92A439B207E1F70E9489000C94B3
S11300A01C010C9400009091C00095FFFCCF80933C
S11300B0C60080E090E008958091C00087FFFCCFE7
S11300C08091C60090E00895529A87E690E090935C
S11300D0C5008093C40088E18093C10086E08093CA
S11300E0C200089580E480937C0081E080937E00C8
S11300F0EAE7F0E087E08083808180688083089568
S113010005C025E02A95F1F7000001970097C9F78B
S11301100895529A529A87E690E09093C50080938E
S1130120C40088E18093C10086E08093C20080E827
S113013091E023E530E030938901209388012CE598
S113014030E030938B0120938A0123E020938301D4
S113015010928D0110928C019093930180939201DF
S1130160909391018093900190938F0180938E01DD
S113017080E480937C0081E080937E0087E080931C
S11301807A0080917A00806880937A00B4E0ABEFC3
S113019040E450E080917A00806480937A008091FA
S11301A07A0084FFFCCF80917A00806180937A008A
S11301B06091780070917900729562956F706727ED
S11301C07F706727BBB9FB01EE0FFF1FE050FF4FA5
S11301D020813181C901880F991F220F331F220FFB
S11301E0331F220F331F820F931F009731F025E036
S11301F02A95F1F700000197D1F7ABB9FA01E61B94
S1130200F70BEE0FFF1FE050FF4F20813181C90132
S1130210880F991F220F331F220F331F220F331F02
S1130220820F931F009709F4B5CF25E02A95F1F7C3
S10F023000000197D1F7AECFF894FFCF87
S113023C01000100010001000100010001000100A6
S113024C020002000200020002000200020002008E
S113025C0700070007000700070007000700070056
S113026C14001400140014001400140014001400DE
S113027C36003600360036003600360036003600BE
S113028C94009400940094009400940094009400BE
S113029C93019301930193019301930193019301AE
S11302AC48044804480448044804480448044804DE
S9030000FC
