:100000000C9434000C9449000C9449000C94490061
:100010000C9449000C9449000C9449000C9449003C
:100020000C9449000C9449000C9449000C9449002C
:100030000C9449000C9449000C9449000C9449001C
:100040000C9449000C9449000C9449000C9449000C
:100050000C9449000C9449000C9449000C944900FC
:100060000C9449000C94490011241FBECFEFD8E036
:10007000DEBFCDBF11E0A0E0B1E0E0EEF1E002C0F4
:1000800005900D92AA30B107D9F70E944B000C944D
:10009000EE000C940000CF93DF93CDB7DEB72A9724
:1000A0000FB6F894DEBF0FBECDBF8091C100877E32
:1000B0008093C1008AE0E0E0F1E0DE01119601905A
:1000C0000D928A95E1F7509A519A529A539A549AFE
:1000D000559A569A579A9E01255F3F4FFE013196D9
:1000E000808190E08095909580FF05C0589A80812E
:1000F00090E08095909581FF05C0599A808190E0AD
:100100008095909582FF05C05A9A808190E08095F5
:10011000909583FF05C05B9A808190E080959095D3
:1001200084FF05C05C9A808190E08095909585FF62
:1001300005C05D9A808190E08095909586FF05C00E
:100140005E9A808190E08095909587FF05C05F9AC8
:10015000808190E0809590954FEF59E668E141509D
:1001600050406040E1F700C0000080FF05C0589893
:10017000808190E08095909581FF05C0599880819D
:1001800090E08095909582FF05C05A98808190E01C
:100190008095909583FF05C05B98808190E0809565
:1001A000909584FF05C05C98808190E08095909543
:1001B00085FF05C05D98808190E08095909586FFD1
:1001C00005C05E98808190E08095909587FD5F984E
:1001D0003196E217F30709F083CF80CFF894FFCF71
:0A01E0003F065B4F666D7D077F6FE1
:00000001FF
