:100000000C9434000C9446000C9446000C9446006A
:100010000C9446000C9446000C9446000C94460048
:100020000C9446000C9446000C9446000C94460038
:100030000C9446000C9446000C9446000C94460028
:100040000C9446000C9446000C9446000C94460018
:100050000C9446000C9446000C9446000C94460008
:100060000C9446000C94460011241FBECFEFD8E03C
:10007000DEBFCDBF24E0A0E0B1E001C01D92A83EEC
:10008000B207E1F70E9493000C9415010C94000054
:10009000009749F481E0ECE7F0E0E050FF4F9081F9
:1000A000892B808308950197FC01F695E795F695D5
:1000B000E795F695E795809590959C0127703327F5
:1000C00081E001C0880F2A95EAF7E050FF4F908148
:1000D000892B80830895FC01F695E795F695E795C1
:1000E000F695E7958095909587709927E050FF4F9A
:1000F000208130E0082E02C0359527950A94E2F75A
:1001000020FD02C02D9808952D9A21E030E0A9012C
:1001100002C0440F551F8A95E2F7CA01809590816D
:1001200089238083089552985A9A259A80E090E016
:1001300001E010E0C8EED3E025C02D98AC014F5F80
:100140005F4F9A01369527953695279536952795D1
:10015000A5ECB0E20E940601929582958F708927E6
:100160009F7089278C9F90018D9F300D9C9F300D33
:100170001124CA01821B930BEFE9FFE03197F1F7DD
:1001800000C000004A991BC00097E1F19C0121507A
:100190003109F901F695E795F695E795F695E79516
:1001A0002095309527703327402F01C0440F2A95A2
:1001B000EAF7242FE050FF4F3081232B2083AC013E
:1001C0004095509547705527FC01F695E795F695B3
:1001D000E795F695E795E050FF4F208130E0042E3B
:1001E00002C0359527950A94E2F720FFA6CF2D9AF5
:1001F000980101C0220F4A95EAF720953081232308
:1002000020839CCF21E0ECE7F0E0D4CFA29FB001A7
:10021000B39FC001A39F700D811D1124911DB29F3A
:0E022000700D811D1124911D0895F894FFCFDB
:00000001FF
